{
  "address": "0x09acDeF938902d110016a1525FfaEa4aCead8d5A",
  "abi": [
    {
      "anonymous": false,
      "inputs": [
        {
          "indexed": true,
          "internalType": "address",
          "name": "addr",
          "type": "address"
        },
        {
          "indexed": true,
          "internalType": "bytes32",
          "name": "pubkey",
          "type": "bytes32"
        }
      ],
      "name": "LinkrPulled",
      "type": "event"
    },
    {
      "anonymous": false,
      "inputs": [
        {
          "indexed": true,
          "internalType": "address",
          "name": "addr",
          "type": "address"
        },
        {
          "indexed": true,
          "internalType": "bytes32",
          "name": "pubkey",
          "type": "bytes32"
        }
      ],
      "name": "LinkrPushed",
      "type": "event"
    },
    {
      "inputs": [
        {
          "internalType": "address",
          "name": "",
          "type": "address"
        }
      ],
      "name": "addressPubkey",
      "outputs": [
        {
          "internalType": "bytes32",
          "name": "",
          "type": "bytes32"
        }
      ],
      "stateMutability": "view",
      "type": "function"
    },
    {
      "inputs": [
        {
          "internalType": "bytes32",
          "name": "pubkey",
          "type": "bytes32"
        },
        {
          "internalType": "uint256",
          "name": "createdAt",
          "type": "uint256"
        },
        {
          "internalType": "uint256",
          "name": "kind",
          "type": "uint256"
        },
        {
          "internalType": "string",
          "name": "tags",
          "type": "string"
        },
        {
          "internalType": "address",
          "name": "content",
          "type": "address"
        }
      ],
      "name": "getEventHash",
      "outputs": [
        {
          "internalType": "bytes32",
          "name": "",
          "type": "bytes32"
        }
      ],
      "stateMutability": "pure",
      "type": "function"
    },
    {
      "inputs": [
        {
          "internalType": "bytes32",
          "name": "",
          "type": "bytes32"
        }
      ],
      "name": "pubkeyAddress",
      "outputs": [
        {
          "internalType": "address",
          "name": "",
          "type": "address"
        }
      ],
      "stateMutability": "view",
      "type": "function"
    },
    {
      "inputs": [],
      "name": "pullLinkr",
      "outputs": [],
      "stateMutability": "nonpayable",
      "type": "function"
    },
    {
      "inputs": [
        {
          "internalType": "bytes32",
          "name": "id",
          "type": "bytes32"
        },
        {
          "internalType": "bytes32",
          "name": "pubkey",
          "type": "bytes32"
        },
        {
          "internalType": "uint256",
          "name": "createdAt",
          "type": "uint256"
        },
        {
          "internalType": "uint256",
          "name": "kind",
          "type": "uint256"
        },
        {
          "internalType": "string",
          "name": "tags",
          "type": "string"
        },
        {
          "internalType": "string",
          "name": "content",
          "type": "string"
        },
        {
          "internalType": "bytes",
          "name": "sig",
          "type": "bytes"
        }
      ],
      "name": "pushLinkr",
      "outputs": [],
      "stateMutability": "nonpayable",
      "type": "function"
    },
    {
      "inputs": [
        {
          "internalType": "bytes32",
          "name": "eventId",
          "type": "bytes32"
        },
        {
          "internalType": "bytes32",
          "name": "pubkey",
          "type": "bytes32"
        },
        {
          "internalType": "uint256",
          "name": "createdAt",
          "type": "uint256"
        },
        {
          "internalType": "uint256",
          "name": "kind",
          "type": "uint256"
        },
        {
          "internalType": "string",
          "name": "tags",
          "type": "string"
        },
        {
          "internalType": "string",
          "name": "content",
          "type": "string"
        },
        {
          "internalType": "bytes",
          "name": "signature",
          "type": "bytes"
        }
      ],
      "name": "verifyNostrEvent",
      "outputs": [
        {
          "internalType": "bool",
          "name": "",
          "type": "bool"
        }
      ],
      "stateMutability": "pure",
      "type": "function"
    }
  ],
  "transactionHash": "0xb9b3cfcc8489538156fac050ea178faf3824be408320e0682efe2d33d8713844",
  "args": [],
  "numDeployments": 1,
  "solcInputHash": "2027ab8c4e264d6132dc9e4f2babd83b",
  "bytecode": "0x608060405234801561001057600080fd5b506114d8806100206000396000f3fe608060405234801561001057600080fd5b50600436106100625760003560e01c806303fdff19146100675780630769218d1461008d5780633d2943c71461009757806369492107146100aa5780636c72992f146100eb578063a1f7347d1461010e575b600080fd5b61007a6100753660046110ee565b61012e565b6040519081526020015b60405180910390f35b6100956101f7565b005b6100956100a5366004611159565b6102af565b6100d36100b836600461123b565b6001602052600090815260409020546001600160a01b031681565b6040516001600160a01b039091168152602001610084565b6100fe6100f9366004611159565b6105ec565b6040519015158152602001610084565b61007a61011c366004611254565b60006020819052908152604090205481565b60008061015b8760405160200161014791815260200190565b604051602081830303815290604052610755565b6101648761096e565b61016d8761096e565b8661017787610a9a565b60405160200161018b95949392919061129a565b60405160208183030381529060405290506002816040516101ac9190611362565b602060405180830381855afa1580156101c9573d6000803e3d6000fd5b5050506040513d601f19601f820116820180604052508101906101ec919061137e565b979650505050505050565b33600090815260208190526040902054806102595760405162461bcd60e51b815260206004820152601e60248201527f4e6f206c696e6b20666f756e6420666f7220746869732061646472657373000060448201526064015b60405180910390fd5b33600081815260208181526040808320839055848352600190915280822080546001600160a01b0319169055518392917fcb1761c67e581f1806ca9344609c4f101f20600f0fbacb43bb965d5c899e136c91a350565b604081146102ff5760405162461bcd60e51b815260206004820152601860248201527f496e76616c6964207369676e6174757265206c656e67746800000000000000006044820152606401610250565b84616a63146103505760405162461bcd60e51b815260206004820152601c60248201527f496e76616c6964206b696e6420666f72204e6f737472204c696e6b72000000006044820152606401610250565b61035c426127106113ad565b8611156103ab5760405162461bcd60e51b815260206004820152601d60248201527f437265617465644174206d75737420626520696e2074686520706173740000006044820152606401610250565b6040805180820190915260028152615b5d60f01b6020918201528451908501207f518674ab2b227e5f11e9084f615d57663cde47bce1ba168b4c19c7ee22a73d70146104445760405162461bcd60e51b815260206004820152602260248201527f54616773206d75737420626520656d70747920666f72204e6f737472204c696e60448201526135b960f11b6064820152608401610250565b61044d33610c7c565b805190602001208380519060200120146104c45760405162461bcd60e51b815260206004820152603260248201527f436f6e74656e74206d7573742062652073656e64657227732061646472657373604482015271040eed2e8d0deeae84060f040e0e4caccd2f60731b6064820152608401610250565b6104d488888888888888886105ec565b6105205760405162461bcd60e51b815260206004820152601760248201527f496e76616c6964204e6f737472207369676e61747572650000000000000000006044820152606401610250565b33600090815260208190526040902054801561055357600081815260016020526040902080546001600160a01b03191690555b6000888152600160205260409020546001600160a01b0316801561058b576001600160a01b0381166000908152602081905260408120555b336000818152602081815260408083208d90558c8352600190915280822080546001600160a01b03191684179055518b92917f33d53066fcd804d37605011eda236659f0b7ae3d7006521f5ce372ce912411d291a350505050505050505050565b60006040821461063e5760405162461bcd60e51b815260206004820152601a60248201527f5369676e6174757265206d7573742062652036342062797465730000000000006044820152606401610250565b600061066a8960405160200161065691815260200190565b604051602081830303815290604052610df5565b6106738961096e565b61067c8961096e565b888860405160200161069295949392919061129a565b604051602081830303815290604052905060006002826040516106b59190611362565b602060405180830381855afa1580156106d2573d6000803e3d6000fd5b5050506040513d601f19601f820116820180604052508101906106f5919061137e565b90508a811461073a5760405162461bcd60e51b815260206004820152601160248201527008aeccadce840928840dad2e6dac2e8c6d607b1b6044820152606401610250565b6107468a8c8787610f92565b9b9a5050505050505050505050565b60408051808201909152601081526f181899199a1a9b1b9c1cb0b131b232b360811b60208201528151606091906000906107909060026113c6565b61079b9060026113ad565b67ffffffffffffffff8111156107b3576107b361102f565b6040519080825280601f01601f1916602001820160405280156107dd576020820181803683370190505b509050600360fc1b816000815181106107f8576107f86113dd565b60200101906001600160f81b031916908160001a905350600f60fb1b81600181518110610827576108276113dd565b60200101906001600160f81b031916908160001a90535060005b84518110156109665782600486838151811061085f5761085f6113dd565b016020015182516001600160f81b031990911690911c60f81c908110610887576108876113dd565b01602001516001600160f81b031916826108a28360026113c6565b6108ad9060026113ad565b815181106108bd576108bd6113dd565b60200101906001600160f81b031916908160001a905350828582815181106108e7576108e76113dd565b602091010151815160f89190911c600f16908110610907576109076113dd565b01602001516001600160f81b031916826109228360026113c6565b61092d9060036113ad565b8151811061093d5761093d6113dd565b60200101906001600160f81b031916908160001a9053508061095e816113f3565b915050610841565b509392505050565b6060816000036109955750506040805180820190915260018152600360fc1b602082015290565b8160005b81156109bf57806109a9816113f3565b91506109b89050600a8361140c565b9150610999565b60008167ffffffffffffffff8111156109da576109da61102f565b6040519080825280601f01601f191660200182016040528015610a04576020820181803683370190505b509050815b8515610a9157610a1a60018261142e565b90506000610a29600a8861140c565b610a3490600a6113c6565b610a3e908861142e565b610a49906030611441565b905060008160f81b905080848481518110610a6657610a666113dd565b60200101906001600160f81b031916908160001a905350610a88600a8961140c565b97505050610a09565b50949350505050565b604080518082018252601081526f181899199a1a9b1b9c1cb0b131b232b360811b60208201528151602a80825260608281019094526001600160a01b0385169291600091602082018180368337019050509050600360fc1b81600081518110610b0557610b056113dd565b60200101906001600160f81b031916908160001a905350600f60fb1b81600181518110610b3457610b346113dd565b60200101906001600160f81b031916908160001a90535060005b6014811015610a915782600485610b6684600c6113ad565b60208110610b7657610b766113dd565b1a60f81b6001600160f81b031916901c60f81c60ff1681518110610b9c57610b9c6113dd565b01602001516001600160f81b03191682610bb78360026113c6565b610bc29060026113ad565b81518110610bd257610bd26113dd565b60200101906001600160f81b031916908160001a9053508284610bf683600c6113ad565b60208110610c0657610c066113dd565b825191901a600f16908110610c1d57610c1d6113dd565b01602001516001600160f81b03191682610c388360026113c6565b610c439060036113ad565b81518110610c5357610c536113dd565b60200101906001600160f81b031916908160001a90535080610c74816113f3565b915050610b4e565b604080518082018252601081526f181899199a1a9b1b9c1cb0b131b232b360811b60208201528151602880825260608281019094526001600160a01b038516929160009160208201818036833701905050905060005b6014811015610a915782600485610cea84600c6113ad565b60208110610cfa57610cfa6113dd565b1a60f81b6001600160f81b031916901c60f81c60ff1681518110610d2057610d206113dd565b01602001516001600160f81b03191682610d3b8360026113c6565b81518110610d4b57610d4b6113dd565b60200101906001600160f81b031916908160001a9053508284610d6f83600c6113ad565b60208110610d7f57610d7f6113dd565b825191901a600f16908110610d9657610d966113dd565b01602001516001600160f81b03191682610db18360026113c6565b610dbc9060016113ad565b81518110610dcc57610dcc6113dd565b60200101906001600160f81b031916908160001a90535080610ded816113f3565b915050610cd2565b60408051808201909152601081526f181899199a1a9b1b9c1cb0b131b232b360811b6020820152815160609190600090610e309060026113c6565b67ffffffffffffffff811115610e4857610e4861102f565b6040519080825280601f01601f191660200182016040528015610e72576020820181803683370190505b50905060005b845181101561096657826004868381518110610e9657610e966113dd565b016020015182516001600160f81b031990911690911c60f81c908110610ebe57610ebe6113dd565b01602001516001600160f81b03191682610ed98360026113c6565b81518110610ee957610ee96113dd565b60200101906001600160f81b031916908160001a90535082858281518110610f1357610f136113dd565b602091010151815160f89190911c600f16908110610f3357610f336113dd565b01602001516001600160f81b03191682610f4e8360026113c6565b610f599060016113ad565b81518110610f6957610f696113dd565b60200101906001600160f81b031916908160001a90535080610f8a816113f3565b915050610e78565b600080610fa2602082858761145a565b610fab91611484565b90506000610fbd60406020868861145a565b610fc691611484565b9050808270014551231950b75fc4402da1732fc9bebe19821580610fea5750808310155b15610ffd57600095505050505050611027565b81158061100a5750808210155b1561101d57600095505050505050611027565b6001955050505050505b949350505050565b634e487b7160e01b600052604160045260246000fd5b600082601f83011261105657600080fd5b813567ffffffffffffffff808211156110715761107161102f565b604051601f8301601f19908116603f011681019082821181831017156110995761109961102f565b816040528381528660208588010111156110b257600080fd5b836020870160208301376000602085830101528094505050505092915050565b80356001600160a01b03811681146110e957600080fd5b919050565b600080600080600060a0868803121561110657600080fd5b853594506020860135935060408601359250606086013567ffffffffffffffff81111561113257600080fd5b61113e88828901611045565b92505061114d608087016110d2565b90509295509295909350565b60008060008060008060008060e0898b03121561117557600080fd5b88359750602089013596506040890135955060608901359450608089013567ffffffffffffffff808211156111a957600080fd5b6111b58c838d01611045565b955060a08b01359150808211156111cb57600080fd5b6111d78c838d01611045565b945060c08b01359150808211156111ed57600080fd5b818b0191508b601f83011261120157600080fd5b81358181111561121057600080fd5b8c602082850101111561122257600080fd5b6020830194508093505050509295985092959890939650565b60006020828403121561124d57600080fd5b5035919050565b60006020828403121561126657600080fd5b61126f826110d2565b9392505050565b60005b83811015611291578181015183820152602001611279565b50506000910152565b632d98161160e11b815285516000906112ba816004850160208b01611276565b61088b60f21b60049184019182015286516112dc816006840160208b01611276565b808201915050600b60fa1b8060068301528651611300816007850160208b01611276565b6007920191820152845161131b816008840160208901611276565b61161160f11b60089290910191820152835161133e81600a840160208801611276565b611355600a8284010161225d60f01b815260020190565b9998505050505050505050565b60008251611374818460208701611276565b9190910192915050565b60006020828403121561139057600080fd5b5051919050565b634e487b7160e01b600052601160045260246000fd5b808201808211156113c0576113c0611397565b92915050565b80820281158282048414176113c0576113c0611397565b634e487b7160e01b600052603260045260246000fd5b60006001820161140557611405611397565b5060010190565b60008261142957634e487b7160e01b600052601260045260246000fd5b500490565b818103818111156113c0576113c0611397565b60ff81811683821601908111156113c0576113c0611397565b6000808585111561146a57600080fd5b8386111561147757600080fd5b5050820193919092039150565b803560208310156113c057600019602084900360031b1b169291505056fea2646970667358221220575ebd911437bc12cc2ad54f8af2d293fb9ebd46011585a421beb597f578b41464736f6c63430008140033",
  "devdoc": {
    "details": "Smart contract to link Ethereum addresses with Nostr public keys",
    "kind": "dev",
    "methods": {
      "getEventHash(bytes32,uint256,uint256,string,address)": {
        "details": "Utility function for testing - compute event hash",
        "params": {
          "content": "Address content",
          "createdAt": "Unix timestamp",
          "kind": "Event kind",
          "pubkey": "The public key",
          "tags": "Event tags"
        },
        "returns": {
          "_0": "bytes32 The computed event hash"
        }
      },
      "pullLinkr()": {
        "details": "Remove the linkage between caller's address and their Nostr pubkey"
      },
      "pushLinkr(bytes32,bytes32,uint256,uint256,string,string,bytes)": {
        "details": "Main function to link Ethereum address to Nostr pubkey",
        "params": {
          "content": "The content of the event (must be sender's address without 0x prefix)",
          "createdAt": "Unix timestamp when the event was created",
          "id": "The Nostr event ID (hash of the event)",
          "kind": "The Nostr event kind (must be 27235 for linkage)",
          "pubkey": "The Nostr public key to link with",
          "sig": "The Schnorr signature of the Nostr event (64 bytes)",
          "tags": "JSON string of event tags (must be empty array \"[]\")"
        }
      },
      "verifyNostrEvent(bytes32,bytes32,uint256,uint256,string,string,bytes)": {
        "details": "Verify Nostr event according to NIP-01 specification",
        "params": {
          "content": "The event content",
          "createdAt": "Unix timestamp of event creation",
          "eventId": "The expected event ID (hash)",
          "kind": "The event kind",
          "pubkey": "The public key that signed the event",
          "signature": "The Schnorr signature (64 bytes)",
          "tags": "JSON string of event tags"
        },
        "returns": {
          "_0": "bool True if the event is valid, false otherwise"
        }
      }
    },
    "title": "NostrLinkr",
    "version": 1
  },
  "userdoc": {
    "kind": "user",
    "methods": {},
    "notice": "This contract allows users to create verifiable links between their Ethereum address and Nostr identity",
    "version": 1
  },
  "storageLayout": {
    "storage": [
      {
        "astId": 6,
        "contract": "contracts/NostrLinkr.sol:NostrLinkr",
        "label": "addressPubkey",
        "offset": 0,
        "slot": "0",
        "type": "t_mapping(t_address,t_bytes32)"
      },
      {
        "astId": 10,
        "contract": "contracts/NostrLinkr.sol:NostrLinkr",
        "label": "pubkeyAddress",
        "offset": 0,
        "slot": "1",
        "type": "t_mapping(t_bytes32,t_address)"
      }
    ],
    "types": {
      "t_address": {
        "encoding": "inplace",
        "label": "address",
        "numberOfBytes": "20"
      },
      "t_bytes32": {
        "encoding": "inplace",
        "label": "bytes32",
        "numberOfBytes": "32"
      },
      "t_mapping(t_address,t_bytes32)": {
        "encoding": "mapping",
        "key": "t_address",
        "label": "mapping(address => bytes32)",
        "numberOfBytes": "32",
        "value": "t_bytes32"
      },
      "t_mapping(t_bytes32,t_address)": {
        "encoding": "mapping",
        "key": "t_bytes32",
        "label": "mapping(bytes32 => address)",
        "numberOfBytes": "32",
        "value": "t_address"
      }
    }
  }
}