{
  "address": "0x0246B2Eb1716445B1d3bA4d86aA7F3Dcb2505948",
  "abi": [
    {
      "inputs": [],
      "stateMutability": "nonpayable",
      "type": "constructor"
    },
    {
      "inputs": [],
      "name": "EnforcedPause",
      "type": "error"
    },
    {
      "inputs": [],
      "name": "ExpectedPause",
      "type": "error"
    },
    {
      "inputs": [
        {
          "internalType": "address",
          "name": "owner",
          "type": "address"
        }
      ],
      "name": "OwnableInvalidOwner",
      "type": "error"
    },
    {
      "inputs": [
        {
          "internalType": "address",
          "name": "account",
          "type": "address"
        }
      ],
      "name": "OwnableUnauthorizedAccount",
      "type": "error"
    },
    {
      "anonymous": false,
      "inputs": [
        {
          "indexed": true,
          "internalType": "address",
          "name": "addr",
          "type": "address"
        },
        {
          "indexed": true,
          "internalType": "bytes32",
          "name": "pubkey",
          "type": "bytes32"
        }
      ],
      "name": "LinkrPulled",
      "type": "event"
    },
    {
      "anonymous": false,
      "inputs": [
        {
          "indexed": true,
          "internalType": "address",
          "name": "addr",
          "type": "address"
        },
        {
          "indexed": true,
          "internalType": "bytes32",
          "name": "pubkey",
          "type": "bytes32"
        }
      ],
      "name": "LinkrPushed",
      "type": "event"
    },
    {
      "anonymous": false,
      "inputs": [
        {
          "indexed": true,
          "internalType": "address",
          "name": "previousOwner",
          "type": "address"
        },
        {
          "indexed": true,
          "internalType": "address",
          "name": "newOwner",
          "type": "address"
        }
      ],
      "name": "OwnershipTransferred",
      "type": "event"
    },
    {
      "anonymous": false,
      "inputs": [
        {
          "indexed": false,
          "internalType": "address",
          "name": "account",
          "type": "address"
        }
      ],
      "name": "Paused",
      "type": "event"
    },
    {
      "anonymous": false,
      "inputs": [
        {
          "indexed": false,
          "internalType": "address",
          "name": "account",
          "type": "address"
        }
      ],
      "name": "Unpaused",
      "type": "event"
    },
    {
      "inputs": [
        {
          "internalType": "address",
          "name": "",
          "type": "address"
        }
      ],
      "name": "addressPubkey",
      "outputs": [
        {
          "internalType": "bytes32",
          "name": "",
          "type": "bytes32"
        }
      ],
      "stateMutability": "view",
      "type": "function"
    },
    {
      "inputs": [
        {
          "internalType": "bytes32",
          "name": "pubkey",
          "type": "bytes32"
        },
        {
          "internalType": "uint256",
          "name": "createdAt",
          "type": "uint256"
        },
        {
          "internalType": "uint256",
          "name": "kind",
          "type": "uint256"
        },
        {
          "internalType": "string",
          "name": "tags",
          "type": "string"
        },
        {
          "internalType": "string",
          "name": "content",
          "type": "string"
        }
      ],
      "name": "getEventHash",
      "outputs": [
        {
          "internalType": "bytes32",
          "name": "",
          "type": "bytes32"
        }
      ],
      "stateMutability": "pure",
      "type": "function"
    },
    {
      "inputs": [],
      "name": "owner",
      "outputs": [
        {
          "internalType": "address",
          "name": "",
          "type": "address"
        }
      ],
      "stateMutability": "view",
      "type": "function"
    },
    {
      "inputs": [],
      "name": "pause",
      "outputs": [],
      "stateMutability": "nonpayable",
      "type": "function"
    },
    {
      "inputs": [],
      "name": "paused",
      "outputs": [
        {
          "internalType": "bool",
          "name": "",
          "type": "bool"
        }
      ],
      "stateMutability": "view",
      "type": "function"
    },
    {
      "inputs": [
        {
          "internalType": "bytes32",
          "name": "",
          "type": "bytes32"
        }
      ],
      "name": "pubkeyAddress",
      "outputs": [
        {
          "internalType": "address",
          "name": "",
          "type": "address"
        }
      ],
      "stateMutability": "view",
      "type": "function"
    },
    {
      "inputs": [],
      "name": "pullLinkr",
      "outputs": [],
      "stateMutability": "nonpayable",
      "type": "function"
    },
    {
      "inputs": [
        {
          "internalType": "bytes32",
          "name": "id",
          "type": "bytes32"
        },
        {
          "internalType": "bytes32",
          "name": "pubkey",
          "type": "bytes32"
        },
        {
          "internalType": "uint256",
          "name": "createdAt",
          "type": "uint256"
        },
        {
          "internalType": "uint256",
          "name": "kind",
          "type": "uint256"
        },
        {
          "internalType": "string",
          "name": "tags",
          "type": "string"
        },
        {
          "internalType": "string",
          "name": "content",
          "type": "string"
        },
        {
          "internalType": "bytes",
          "name": "sig",
          "type": "bytes"
        }
      ],
      "name": "pushLinkr",
      "outputs": [],
      "stateMutability": "nonpayable",
      "type": "function"
    },
    {
      "inputs": [],
      "name": "renounceOwnership",
      "outputs": [],
      "stateMutability": "nonpayable",
      "type": "function"
    },
    {
      "inputs": [
        {
          "internalType": "address",
          "name": "newOwner",
          "type": "address"
        }
      ],
      "name": "transferOwnership",
      "outputs": [],
      "stateMutability": "nonpayable",
      "type": "function"
    },
    {
      "inputs": [],
      "name": "unpause",
      "outputs": [],
      "stateMutability": "nonpayable",
      "type": "function"
    },
    {
      "inputs": [
        {
          "internalType": "bytes32",
          "name": "eventId",
          "type": "bytes32"
        },
        {
          "internalType": "bytes32",
          "name": "pubkey",
          "type": "bytes32"
        },
        {
          "internalType": "uint256",
          "name": "createdAt",
          "type": "uint256"
        },
        {
          "internalType": "uint256",
          "name": "kind",
          "type": "uint256"
        },
        {
          "internalType": "string",
          "name": "tags",
          "type": "string"
        },
        {
          "internalType": "string",
          "name": "content",
          "type": "string"
        },
        {
          "internalType": "bytes",
          "name": "signature",
          "type": "bytes"
        }
      ],
      "name": "verifyNostrEvent",
      "outputs": [
        {
          "internalType": "bool",
          "name": "",
          "type": "bool"
        }
      ],
      "stateMutability": "view",
      "type": "function"
    }
  ],
  "transactionHash": "0x2634055ea742a25730c346be2424017e87e533eb4cc9eb9c9271a13820dc6b5a",
  "args": [],
  "numDeployments": 2,
  "solcInputHash": "10a38c9f10a1442c5279347a0ad397ab",
  "bytecode": "0x6080604052348015600f57600080fd5b503380603557604051631e4fbdf760e01b81526000600482015260240160405180910390fd5b603c81604e565b506000805460ff60a01b19169055609e565b600080546001600160a01b038381166001600160a01b0319831681178455604051919092169283917f8be0079c531659141344cd1fd0a4f28419497f9722a3daafe3b4186f6b6457e09190a35050565b611908806100ad6000396000f3fe608060405234801561001057600080fd5b50600436106100b45760003560e01c80636c72992f116100715780636c72992f14610163578063715018a6146101765780638456cb591461017e5780638da5cb5b14610186578063a1f7347d14610197578063f2fde38b146101b757600080fd5b80630769218d146100b957806328b556b5146100c35780633d2943c7146100e95780633f4ba83a146100fc5780635c975abb146101045780636949210714610122575b600080fd5b6100c16101ca565b005b6100d66100d13660046114b7565b610284565b6040519081526020015b60405180910390f35b6100c16100f736600461153d565b610345565b6100c16106e7565b600054600160a01b900460ff165b60405190151581526020016100e0565b61014b61013036600461162e565b6002602052600090815260409020546001600160a01b031681565b6040516001600160a01b0390911681526020016100e0565b61011261017136600461153d565b6106f9565b6100c161084e565b6100c1610860565b6000546001600160a01b031661014b565b6100d66101a5366004611647565b60016020526000908152604090205481565b6100c16101c5366004611647565b610870565b336000908152600160205260409020548061022c5760405162461bcd60e51b815260206004820152601e60248201527f4e6f206c696e6b20666f756e6420666f7220746869732061646472657373000060448201526064015b60405180910390fd5b336000818152600160209081526040808320839055848352600290915280822080546001600160a01b0319169055518392917fcb1761c67e581f1806ca9344609c4f101f20600f0fbacb43bb965d5c899e136c91a350565b6000806102b18760405160200161029d91815260200190565b6040516020818303038152906040526108ae565b6102ba87610a49565b6102c387610a49565b86866040516020016102d99594939291906116b0565b60405160208183030381529060405290506002816040516102fa919061177c565b602060405180830381855afa158015610317573d6000803e3d6000fd5b5050506040513d601f19601f8201168201806040525081019061033a9190611798565b979650505050505050565b61034d610b75565b6040811461039d5760405162461bcd60e51b815260206004820152601860248201527f496e76616c6964207369676e6174757265206c656e67746800000000000000006044820152606401610223565b84616a63146103ee5760405162461bcd60e51b815260206004820152601c60248201527f496e76616c6964206b696e6420666f72204e6f737472204c696e6b72000000006044820152606401610223565b6103fa61012c426117c7565b8611156104495760405162461bcd60e51b815260206004820152601f60248201527f43726561746564417420746f6f2066617220696e2074686520667574757265006044820152606401610223565b610455610e10426117da565b8610156104a45760405162461bcd60e51b815260206004820152601d60248201527f43726561746564417420746f6f2066617220696e2074686520706173740000006044820152606401610223565b6040805180820190915260028152615b5d60f01b6020918201528451908501207f518674ab2b227e5f11e9084f615d57663cde47bce1ba168b4c19c7ee22a73d701461053d5760405162461bcd60e51b815260206004820152602260248201527f54616773206d75737420626520656d70747920666f72204e6f737472204c696e60448201526135b960f11b6064820152608401610223565b61054633610ba0565b805190602001208380519060200120146105bd5760405162461bcd60e51b815260206004820152603260248201527f436f6e74656e74206d7573742062652073656e64657227732061646472657373604482015271040eed2e8d0deeae84060f040e0e4caccd2f60731b6064820152608401610223565b6105cd88888888888888886106f9565b6106195760405162461bcd60e51b815260206004820152601760248201527f496e76616c6964204e6f737472207369676e61747572650000000000000000006044820152606401610223565b33600090815260016020526040902054801561064c57600081815260026020526040902080546001600160a01b03191690555b6000888152600260205260409020546001600160a01b03168015610684576001600160a01b0381166000908152600160205260408120555b3360008181526001602090815260408083208d90558c8352600290915280822080546001600160a01b03191684179055518b92917f33d53066fcd804d37605011eda236659f0b7ae3d7006521f5ce372ce912411d291a350505050505050505050565b6106ef610d0f565b6106f7610d3c565b565b60006040821461074b5760405162461bcd60e51b815260206004820152601a60248201527f5369676e6174757265206d7573742062652036342062797465730000000000006044820152606401610223565b60006107638960405160200161029d91815260200190565b61076c89610a49565b61077589610a49565b888860405160200161078b9594939291906116b0565b604051602081830303815290604052905060006002826040516107ae919061177c565b602060405180830381855afa1580156107cb573d6000803e3d6000fd5b5050506040513d601f19601f820116820180604052508101906107ee9190611798565b90508a81146108335760405162461bcd60e51b815260206004820152601160248201527008aeccadce840928840dad2e6dac2e8c6d607b1b6044820152606401610223565b61083f8a8c8787610d91565b9b9a5050505050505050505050565b610856610d0f565b6106f76000611088565b610868610d0f565b6106f76110d8565b610878610d0f565b6001600160a01b0381166108a257604051631e4fbdf760e01b815260006004820152602401610223565b6108ab81611088565b50565b60408051808201909152601081526f181899199a1a9b1b9c1cb0b131b232b360811b60208201528151606091906000906108e99060026117ed565b67ffffffffffffffff81111561090157610901611412565b6040519080825280601f01601f19166020018201604052801561092b576020820181803683370190505b50905060005b8451811015610a415782600486838151811061094f5761094f611804565b016020015182516001600160f81b031990911690911c60f81c90811061097757610977611804565b01602001516001600160f81b031916826109928360026117ed565b815181106109a2576109a2611804565b60200101906001600160f81b031916908160001a905350828582815181106109cc576109cc611804565b602091010151815160f89190911c600f169081106109ec576109ec611804565b01602001516001600160f81b03191682610a078360026117ed565b610a129060016117c7565b81518110610a2257610a22611804565b60200101906001600160f81b031916908160001a905350600101610931565b509392505050565b606081600003610a705750506040805180820190915260018152600360fc1b602082015290565b8160005b8115610a9a5780610a848161181a565b9150610a939050600a83611849565b9150610a74565b60008167ffffffffffffffff811115610ab557610ab5611412565b6040519080825280601f01601f191660200182016040528015610adf576020820181803683370190505b509050815b8515610b6c57610af56001826117da565b90506000610b04600a88611849565b610b0f90600a6117ed565b610b1990886117da565b610b2490603061185d565b905060008160f81b905080848481518110610b4157610b41611804565b60200101906001600160f81b031916908160001a905350610b63600a89611849565b97505050610ae4565b50949350505050565b600054600160a01b900460ff16156106f75760405163d93c066560e01b815260040160405180910390fd5b604080518082018252601081526f181899199a1a9b1b9c1cb0b131b232b360811b60208201528151602880825260608281019094526001600160a01b038516929160009160208201818036833701905050905060005b6014811015610b6c5782600485610c0e84600c6117c7565b60208110610c1e57610c1e611804565b1a60f81b6001600160f81b031916901c60f81c60ff1681518110610c4457610c44611804565b01602001516001600160f81b03191682610c5f8360026117ed565b81518110610c6f57610c6f611804565b60200101906001600160f81b031916908160001a9053508284610c9383600c6117c7565b60208110610ca357610ca3611804565b825191901a600f16908110610cba57610cba611804565b01602001516001600160f81b03191682610cd58360026117ed565b610ce09060016117c7565b81518110610cf057610cf0611804565b60200101906001600160f81b031916908160001a905350600101610bf6565b6000546001600160a01b031633146106f75760405163118cdaa760e01b8152336004820152602401610223565b610d4461111b565b6000805460ff60a01b191690557f5db9ee0a495bf2e6ff9c91a7834c1ba4fdd244a5e8aa4e537bd38aeae4b073aa335b6040516001600160a01b03909116815260200160405180910390a1565b600080610da16020828587611876565b610daa916118a0565b90506000610dbc604060208688611876565b610dc5916118a0565b90506401000003d0198210610ddf57600092505050611080565b70014551231950b75fc4402da1732fc9bebe198110610e0357600092505050611080565b866401000003d0198110610e1d5760009350505050611080565b6000610e2882611145565b905080600003610e3f576000945050505050611080565b610e4a6002826118be565b15610e6257610e5f816401000003d0196117da565b90505b60006002604051610e8a9070424950303334302f6368616c6c656e676560781b815260110190565b602060405180830381855afa158015610ea7573d6000803e3d6000fd5b5050506040513d601f19601f82011682018060405250810190610eca9190611798565b604080516020810183905290810182905260608101879052608081018c905260a081018b905290915060009070014551231950b75fc4402da1732fc9bebe199060029060c00160408051601f1981840301815290829052610f2a9161177c565b602060405180830381855afa158015610f47573d6000803e3d6000fd5b5050506040513d601f19601f82011682018060405250810190610f6a9190611798565b610f7491906118be565b9050600080610fc47f79be667ef9dcbbac55a06295ce870b07029bfcdb2dce28d959f2815b16f817987f483ada7726a3c4655da4fbfc0e1108a8fd17b448a68554199c47d08ffb10d4b8896111b9565b91509150600080610fd68888876111b9565b90925090506000610fed826401000003d0196117da565b9050600080610ffe8787878661123f565b91509150816000148015611010575080155b1561102b5760009d5050505050505050505050505050611080565b8c82146110485760009d5050505050505050505050505050611080565b6110536002826118be565b1561106e5760009d5050505050505050505050505050611080565b60019d50505050505050505050505050505b949350505050565b600080546001600160a01b038381166001600160a01b0319831681178455604051919092169283917f8be0079c531659141344cd1fd0a4f28419497f9722a3daafe3b4186f6b6457e09190a35050565b6110e0610b75565b6000805460ff60a01b1916600160a01b1790557f62e78cea01bee320cd4e420270b5ea74000d11b0c9f74754ebdbfc544b05a258610d743390565b600054600160a01b900460ff166106f757604051638dfc202b60e01b815260040160405180910390fd5b6000806401000003d01960076401000003d019856401000003d0198788090908905060006111968260046111806401000003d01960016117c7565b61118a9190611849565b6401000003d0196113ae565b9050816401000003d019828309146111b2575060009392505050565b9392505050565b600080826000036111cf57506000905080611237565b50600090508084845b8415611234578460011660010361121757831580156111f5575082155b1561120557819350809250611217565b6112118484848461123f565b90945092505b6112238282848461123f565b60019690961c9590925090506111d8565b50505b935093915050565b6000808515801561124e575084155b1561125d5750829050816113a5565b83158015611269575082155b156112785750849050836113a5565b60008487036112ed578386146112955760008092509250506113a5565b856000036112aa5760008092509250506113a5565b60006401000003d01980898a09600309905060006401000003d0198860020990506401000003d0196112e2826401000003d0196113f2565b830992505050611345565b60006401000003d019611306886401000003d0196117da565b8608905060006401000003d0196113238a6401000003d0196117da565b880890506401000003d01961133e826401000003d0196113f2565b8309925050505b6401000003d01980868908611360906401000003d0196117da565b6401000003d0198384090892506401000003d019611384876401000003d0196117da565b6401000003d0198061139c876401000003d0196117da565b8b088409089150505b94509492505050565b600060405160208152602080820152602060408201528460608201528360808201528260a082015260208160c08360055afa6113e957600080fd5b51949350505050565b6000611409836114036002856117da565b846113ae565b90505b92915050565b634e487b7160e01b600052604160045260246000fd5b600082601f83011261143957600080fd5b813567ffffffffffffffff81111561145357611453611412565b604051601f8201601f19908116603f0116810167ffffffffffffffff8111828210171561148257611482611412565b60405281815283820160200185101561149a57600080fd5b816020850160208301376000918101602001919091529392505050565b600080600080600060a086880312156114cf57600080fd5b853594506020860135935060408601359250606086013567ffffffffffffffff8111156114fb57600080fd5b61150788828901611428565b925050608086013567ffffffffffffffff81111561152457600080fd5b61153088828901611428565b9150509295509295909350565b60008060008060008060008060e0898b03121561155957600080fd5b88359750602089013596506040890135955060608901359450608089013567ffffffffffffffff81111561158c57600080fd5b6115988b828c01611428565b94505060a089013567ffffffffffffffff8111156115b557600080fd5b6115c18b828c01611428565b93505060c089013567ffffffffffffffff8111156115de57600080fd5b8901601f81018b136115ef57600080fd5b803567ffffffffffffffff81111561160657600080fd5b8b602082840101111561161857600080fd5b989b979a50959850939692959194602001935050565b60006020828403121561164057600080fd5b5035919050565b60006020828403121561165957600080fd5b81356001600160a01b03811681146111b257600080fd5b60005b8381101561168b578181015183820152602001611673565b50506000910152565b600081516116a6818560208601611670565b9290920192915050565b632d98161160e11b815285516000906116d0816004850160208b01611670565b61088b60f21b60049184019182015286516116f2816006840160208b01611670565b600481830101915050600b60fa1b60028201528551611718816003840160208a01611670565b600281830101915050600b60fa1b6001820152845161173e816002840160208901611670565b61176f61176161175b60028585010161161160f11b815260020190565b87611694565b61225d60f01b815260020190565b9998505050505050505050565b6000825161178e818460208701611670565b9190910192915050565b6000602082840312156117aa57600080fd5b5051919050565b634e487b7160e01b600052601160045260246000fd5b8082018082111561140c5761140c6117b1565b8181038181111561140c5761140c6117b1565b808202811582820484141761140c5761140c6117b1565b634e487b7160e01b600052603260045260246000fd5b60006001820161182c5761182c6117b1565b5060010190565b634e487b7160e01b600052601260045260246000fd5b60008261185857611858611833565b500490565b60ff818116838216019081111561140c5761140c6117b1565b6000808585111561188657600080fd5b8386111561189357600080fd5b5050820193919092039150565b8035602083101561140c57600019602084900360031b1b1692915050565b6000826118cd576118cd611833565b50069056fea26469706673582212204ddfa389246a6fb80bd5c2aabd68fe0168492293633e64311aaddf2ab3498bed64736f6c634300081e0033",
  "devdoc": {
    "details": "Smart contract to link Ethereum addresses with Nostr public keys",
    "errors": {
      "EnforcedPause()": [
        {
          "details": "The operation failed because the contract is paused."
        }
      ],
      "ExpectedPause()": [
        {
          "details": "The operation failed because the contract is not paused."
        }
      ],
      "OwnableInvalidOwner(address)": [
        {
          "details": "The owner is not a valid owner account. (eg. `address(0)`)"
        }
      ],
      "OwnableUnauthorizedAccount(address)": [
        {
          "details": "The caller account is not authorized to perform an operation."
        }
      ]
    },
    "events": {
      "Paused(address)": {
        "details": "Emitted when the pause is triggered by `account`."
      },
      "Unpaused(address)": {
        "details": "Emitted when the pause is lifted by `account`."
      }
    },
    "kind": "dev",
    "methods": {
      "getEventHash(bytes32,uint256,uint256,string,string)": {
        "details": "Utility function for testing - compute event hash",
        "params": {
          "content": "Address content (without 0x prefix)",
          "createdAt": "Unix timestamp",
          "kind": "Event kind",
          "pubkey": "The public key",
          "tags": "Event tags"
        },
        "returns": {
          "_0": "bytes32 The computed event hash"
        }
      },
      "owner()": {
        "details": "Returns the address of the current owner."
      },
      "pause()": {
        "details": "Pause the contract - only owner"
      },
      "paused()": {
        "details": "Returns true if the contract is paused, and false otherwise."
      },
      "pullLinkr()": {
        "details": "Remove the linkage between caller's address and their Nostr pubkey"
      },
      "pushLinkr(bytes32,bytes32,uint256,uint256,string,string,bytes)": {
        "details": "Main function to link Ethereum address to Nostr pubkey",
        "params": {
          "content": "The content of the event (must be sender's address without 0x prefix)",
          "createdAt": "Unix timestamp when the event was created",
          "id": "The Nostr event ID (hash of the event)",
          "kind": "The Nostr event kind (must be 27235 for linkage)",
          "pubkey": "The Nostr public key to link with",
          "sig": "The Schnorr signature of the Nostr event (64 bytes)",
          "tags": "JSON string of event tags (must be empty array \"[]\")"
        }
      },
      "renounceOwnership()": {
        "details": "Leaves the contract without owner. It will not be possible to call `onlyOwner` functions. Can only be called by the current owner. NOTE: Renouncing ownership will leave the contract without an owner, thereby disabling any functionality that is only available to the owner."
      },
      "transferOwnership(address)": {
        "details": "Transfers ownership of the contract to a new account (`newOwner`). Can only be called by the current owner."
      },
      "unpause()": {
        "details": "Unpause the contract - only owner"
      },
      "verifyNostrEvent(bytes32,bytes32,uint256,uint256,string,string,bytes)": {
        "details": "Verify Nostr event according to NIP-01 specification",
        "params": {
          "content": "The event content",
          "createdAt": "Unix timestamp of event creation",
          "eventId": "The expected event ID (hash)",
          "kind": "The event kind",
          "pubkey": "The public key that signed the event",
          "signature": "The Schnorr signature (64 bytes)",
          "tags": "JSON string of event tags"
        },
        "returns": {
          "_0": "bool True if the event is valid, false otherwise"
        }
      }
    },
    "title": "NostrLinkr",
    "version": 1
  },
  "userdoc": {
    "kind": "user",
    "methods": {},
    "notice": "This contract allows users to create verifiable links between their Ethereum address and Nostr identity",
    "version": 1
  },
  "storageLayout": {
    "storage": [
      {
        "astId": 8,
        "contract": "contracts/NostrLinkr.sol:NostrLinkr",
        "label": "_owner",
        "offset": 0,
        "slot": "0",
        "type": "t_address"
      },
      {
        "astId": 186,
        "contract": "contracts/NostrLinkr.sol:NostrLinkr",
        "label": "_paused",
        "offset": 20,
        "slot": "0",
        "type": "t_bool"
      },
      {
        "astId": 307,
        "contract": "contracts/NostrLinkr.sol:NostrLinkr",
        "label": "addressPubkey",
        "offset": 0,
        "slot": "1",
        "type": "t_mapping(t_address,t_bytes32)"
      },
      {
        "astId": 311,
        "contract": "contracts/NostrLinkr.sol:NostrLinkr",
        "label": "pubkeyAddress",
        "offset": 0,
        "slot": "2",
        "type": "t_mapping(t_bytes32,t_address)"
      }
    ],
    "types": {
      "t_address": {
        "encoding": "inplace",
        "label": "address",
        "numberOfBytes": "20"
      },
      "t_bool": {
        "encoding": "inplace",
        "label": "bool",
        "numberOfBytes": "1"
      },
      "t_bytes32": {
        "encoding": "inplace",
        "label": "bytes32",
        "numberOfBytes": "32"
      },
      "t_mapping(t_address,t_bytes32)": {
        "encoding": "mapping",
        "key": "t_address",
        "label": "mapping(address => bytes32)",
        "numberOfBytes": "32",
        "value": "t_bytes32"
      },
      "t_mapping(t_bytes32,t_address)": {
        "encoding": "mapping",
        "key": "t_bytes32",
        "label": "mapping(bytes32 => address)",
        "numberOfBytes": "32",
        "value": "t_address"
      }
    }
  }
}